:020000040000FA
:1000000001EF34F0C96E120035EF30F0E4EC0CF083
:10001000CDEC0FF0FDD71200BDEF31F0D9CFE5FFE9
:10002000E1CFD9FF00C0E5FF01C0E5FF02C0E5FF59
:1000300003C0E5FF04C0E5FF05C0E5FF06C0E5FF1E
:1000400007C0E5FF08C0E5FF09C0E5FF0AC0E5FFFE
:100050000BC0E5FF0CC0E5FF0DC0E5FF0EC0E5FFDE
:100060000FC0E5FF10C0E5FF11C0E5FF12C0E5FFBE
:1000700013C0E5FF14C0E5FF15C0E5FF16C0E5FF9E
:1000800017C0E5FF18C0E5FF19C0E5FF1AC0E5FF7E
:100090001BC0E5FF1CC0E5FF1DC0E5FF1EC0E5FF5E
:1000A0001FC0E5FF20C0E5FF21C0E5FF22C0E5FF3E
:1000B00023C0E5FF24C0E5FF25C0E5FF26C0E5FF1E
:1000C00027C0E5FF020EDBCF00F0030EDBCF01F00F
:1000D000040EDBCF02F00250086E0150076E005094
:1000E000066EE56A100EE56E0850E56E0750E56E87
:1000F0000650E56E800EE56E0F0EE56E230EE56E82
:1001000084EC26F0080EE1262BCF03F02CCF04F070
:100110002DCF05F02ECF06F003C007F004C008F085
:1001200005C009F006C00AF0D8800AAED8900AE3EC
:100130000A1E091E081E076C05E1082A03E1092AA8
:10014000D8B40A2A23CF0BF024CF0CF0E86A0F01B1
:1001500024BFFF0E0D6E0E6ED8902731106E263123
:100160000F6ED89010320F322851E840E840C00B93
:1001700010122841E8403F0BE8BAC009116E126A1C
:1001800011BE12680F500B5C0F6E10500C58106EA1
:1001900011500D58116E12500E58126E800F810FB3
:1001A00008E1FF0E115C05E1FF0E105C02E1FE0E9E
:1001B0000F5CD8A04ED01250800F800F08E1000EC7
:1001C000115C05E1000E105C02E1030E0F5CD8B07B
:1001D00040D00A340A30166E0930156E0830146E9D
:1001E0000730136E31CF17F032CF18F0E86A0F01E5
:1001F00032BFFF0E196E800FF36E1650800FF35C46
:1002000008E11550195C05E11450185C02E1135027
:10021000175C1FE30C50156E15260D34166ED89022
:10022000153616360B44E844FC0B146E0B50E844AC
:10023000E844030B15120F01256B1450266F15505F
:10024000276F1650286F2B6B2C6B2D6B2E6BF3EFDB
:1002500004F0D89009300C6E08300B6ED8900C3238
:100260000B32D8900C320B320A50E838E844E00BDD
:100270000C120A38E8441F0BE8B8E0090E6A08506F
:10028000076E0950086ED89008320732D8900832AD
:1002900007320A50E840E840C00B08120A40E84024
:1002A0003F0B0BC009F00CC00AF0E86A0CBEFF0E51
:1002B0000D6E0E6E07C013F008C014F0E86A08BE99
:1002C000FF0E156EE56E1550E56E1450E56E135079
:1002D000E56E0E50E56E0D50E56E0A50E56E095064
:1002E000E56E36EC1CF0096EF3CF0AF0F4CF0DF09A
:1002F000E9CF0EF0080EE12631CF13F032CF14F023
:10030000E86A0F0132BFFF0E156E166EE56E1550CE
:10031000E56E1450E56E1350E56E0E50E56E0D500F
:10032000E56E0A50E56E0950E56E1CEC1EF0096E94
:10033000F3CF0AF0080EE12629CF0DF02ACF0EF0F8
:10034000E86A0F012ABFFF0E176E0E501B6E1B26A8
:1003500017341C6ED8901B361C360D44E844FC0B39
:100360001A6E0D50E844E844030B1B12196AD8803A
:1003700006AED890D8B07AD109C00DF00AC00EF000
:10038000E86A0ABEFF0E176E800FF36E1250800FE0
:10039000F35C08E11150175C05E110500E5C02E1BE
:1003A0000F500D5CD8B03AD10650800FF36E1C5040
:1003B000800FF35C08E11B50055C05E11A50045CFA
:1003C00002E11950035CD8B002D12FCF0DF030CF2D
:1003D0000EF0E86A0F0130BFFF0E176E186E035063
:1003E0000D2604500E2205501722065018220D50DB
:1003F0000F012B6F0E502C6F17502D6F18502E6F52
:1004000031CF0DF032CF0EF02FCF17F030CF18F0E4
:100410000E50800FF36E1850800FF35C02E11750FE
:100420000D5CD8B0B8D02BCF1DF02CCF1EF02DCF47
:100430001FF02ECF20F0D8901F30226E1E30216E7C
:10044000D89022322132D890223221322050E838FE
:10045000E844E00B22122038E8441F0BE8B8E0091A
:10046000246A21500B6E22500C6ED8901F30226EE1
:100470001E30216ED890223221322050E840E840D0
:10048000C00B22122040E8403F0B2150076E225043
:10049000086E0BC021F00CC022F0E86A0CBEFF0E03
:1004A000236E246E07C025F008C026F0E86A08BE57
:1004B000FF0E276EE56E2750E56E2650E56E25503F
:1004C000E56E2450E56E2350E56E2250E56E215016
:1004D000E56E36EC1CF0216EF3CF22F0F4CF23F062
:1004E000E9CF24F0080EE1260DC025F00EC026F05D
:1004F000E86A0EBEFF0E276EE56E2750E56E2650A9
:10050000E56E2550E56E2450E56E2350E56E2250D1
:10051000E56E2150E56E1CEC1EF0216EF3CF22F04B
:10052000080EE1262150096E22500A6E09C021F002
:100530000AC022F0E86A0ABEFF0E236E246E125033
:10054000800FF36E2450800FF35C08E12350115CA0
:1005500005E12250105C02E121500F5C1CE20D50BD
:10056000175C0D6E0E5018580E6EE86A0EBEFF0E28
:10057000176E186E0D501D5E0E501E5A17501F5AE2
:100580001850205A1D500F012B6F1E502C6F1F50FA
:100590002D6F20502E6F1C50800FF36E0F012E51C7
:1005A000800FF35C08E12D511B5C05E12C511A5CB6
:1005B00002E12B51195CD8B0EFD119500F012B6F0C
:1005C0001A502C6F1B502D6F1C502E6FE5D11C50F4
:1005D000800FF36E0650800FF35C08E105501B5C42
:1005E00005E104501A5C02E10350195CD8B0D4D183
:1005F0001350035C0D6E145004580E6E15500558C0
:10060000176E16500658186E0D500F012B6F0E50B6
:100610002C6F17502D6F18502E6FBED12FCF0DF0AD
:1006200030CF0EF0E86A0F0130BFFF0E176E186E64
:1006300013500D2614500E22155017221650182252
:100640000D50035C0D6E0E5004580E6E1750055879
:10065000176E18500658186E0D500F012B6F0E5064
:100660002C6F17502D6F18502E6F96D10A1E096CE3
:10067000D8B40A2A09C00DF00AC00EF0E86A0ABE12
:10068000FF0E176E186E1250800FF36E1850800F09
:10069000F35C08E11750115C05E10E50105C02E1BB
:1006A0000D500F5CD8B055D11C1C186E1B1C176E5A
:1006B0001A1C0E6E191C0D6E0D2A04E10E2A02E1A1
:1006C000174A182A1850800FF36E0650800FF35CFB
:1006D00008E10550175C05E104500E5C02E103508F
:1006E0000D5CD8B00FD12FCF19F030CF1AF0E86AD7
:1006F0000F0130BFFF0E1B6E1C6E1950035C196E8C
:100700001A5004581A6E1B5005581B6E1C50065880
:100710001C6E19500F012B6F1A502C6F1B502D6F30
:100720001C502E6F31CF19F032CF1AF02FCF1BF0A3
:1007300030CF1CF01A50800FF36E1C50800FF35C0A
:1007400002E11B50195CD8B0C1D02BCF1DF02CCFCB
:100750001EF02DCF1FF02ECF20F0D8901F30226E2C
:100760001E30216ED89022322132D890223221328E
:100770002050E838E844E00B22122038E8441F0BF0
:10078000E8B8E009236E246A23BE2468241E231ED1
:10079000221E216C05E1222A03E1232AD8B4242A4F
:1007A00021500B6E22500C6ED8901F30226E1E30DE
:1007B000216ED890223221322050E840E840C00B10
:1007C00022122040E8403F0B221E216C02E1222A27
:1007D00000E12150076E2250086EE86A0CBEFF0E41
:1007E000216E226EE86A08BEFF0E236EE56E23506E
:1007F000E56E0850E56E0750E56E2250E56E21501B
:10080000E56E0C50E56E0B50E56E36EC1CF0076E95
:10081000F3CF08F0F4CF0BF0E9CF0CF0080EE1268F
:1008200019C021F01AC022F0E86A1ABEFF0E236E2A
:10083000E56E2350E56E2250E56E2150E56E0C50BA
:10084000E56E0B50E56E0850E56E0750E56E1CEC4A
:100850001EF0076EF3CF08F0080EE126081E076CA5
:1008600002E1082A00E10750096E08500A6EE86AA2
:100870000ABEFF0E076E800FF36E1250800FF35CFE
:1008800008E11150075C05E110500A5C02E10F50CD
:10089000095C1CE219501B5C196E1A501C581A6E28
:1008A000E86A1ABEFF0E076E086E19501D261A5010
:1008B0001E2207501F22085020221D500F012B6FAF
:1008C0001E502C6F1F502D6F20502E6F0F012E5178
:1008D000800FF36E1850800FF35C08E117502D5D08
:1008E00005E10E502C5D02E10D502B5DD8B054D0C7
:1008F0000D500F012B6F0E502C6F17502D6F18508D
:100900002E6F4AD00650800FF36E1850800FF35CA4
:1009100008E11750055C05E10E50045C02E10D5042
:10092000035CD8B039D013500324076E1450042050
:10093000086E15500520096E165006200A6E0750E5
:100940000F012B6F08502C6F09502D6F0A502E6F1E
:1009500023D02FCF07F030CF08F0E86A0F0130BF67
:10096000FF0E096E0A6E0750132608501422095014
:1009700015220A5016221350032614500422155033
:1009800005221650062203500F012B6F04502C6FC6
:1009900005502D6F06502E6FD8900F012D31046E2B
:1009A0002C31036ED890043203322E51E840E840D7
:1009B000C00B04122E41E8403F0BE8BAC009056E97
:1009C000066A05BE066825510326265104222751D2
:1009D0000522285106220350256F0450266F05502A
:1009E000276F0650286FE56A100EE56E800EE56EE3
:1009F0000F0EE56E230EE56E0250E56E0150E56EBA
:100A00000050E56E84EC26F0080EE126E4CF27F0D6
:100A1000E4CF26F0E4CF25F0E4CF24F0E4CF23F0B8
:100A2000E4CF22F0E4CF21F0E4CF20F0E4CF1FF0B8
:100A3000E4CF1EF0E4CF1DF0E4CF1CF0E4CF1BF0B8
:100A4000E4CF1AF0E4CF19F0E4CF18F0E4CF17F0B8
:100A5000E4CF16F0E4CF15F0E4CF14F0E4CF13F0B8
:100A6000E4CF12F0E4CF11F0E4CF10F0E4CF0FF0B8
:100A7000E4CF0EF0E4CF0DF0E4CF0CF0E4CF0BF0B8
:100A8000E4CF0AF0E4CF09F0E4CF08F0E4CF07F0B8
:100A9000E4CF06F0E4CF05F0E4CF04F0E4CF03F0B8
:100AA000E4CF02F0E4CF01F0E4CF00F0E4CFD9FFCF
:100AB0001200D9CFE5FFE1CFD9FF00C0E5FF01C0AB
:100AC000E5FF02C0E5FF03C0E5FF04C0E5FF05C088
:100AD000E5FF06C0E5FF07C0E5FF08C0E5FF09C068
:100AE000E5FF0AC0E5FF0BC0E5FF0CC0E5FF0DC048
:100AF000E5FF0EC0E5FF0FC0E5FF10C0E5FF11C028
:100B0000E5FF12C0E5FF13C0E5FF14C0E5FF15C007
:100B1000E5FF16C0E5FF17C0E5FF18C0E5FF19C0E7
:100B2000E5FF1AC0E5FF1BC0E5FF1CC0E5FF1DC0C7
:100B3000E5FF1EC0E5FF020EDBCF00F0030EDBCFAA
:100B400001F0040EDBCF02F0050EDBCF03F0060E42
:100B5000DBCF04F0070EDBCF05F0080EDBCF06F08D
:100B6000090EDBCF07F00A0EDBCF08F0096A0A6A2C
:100B700002C00DF00D50800A0DE102500601756FA4
:100B80000150746F0050736F060E016E730E006E8D
:100B9000800E026E03C0E9FF04C0F3FF05504BEC6A
:100BA00034F00B6E0B50D8B40FEF09F00B50250A40
:100BB00002E0F6EF08F00C6A0D6A0E6A0F6A106A1E
:100BC0000A0E116E126A136A146A200E156E1668E8
:100BD000176A2B0E186E032A02E3044A052A03C083
:100BE000E9FF04C0F3FF05504BEC34F0196E250A01
:100BF00013E11950E56E0250E56E0150E56E0050AC
:100C0000E56EEFEC24F0040EE126094A0A2A032AD5
:100C100002E3044A052ABED71950300A06E1300E15
:100C2000156E032A02E3044A052A03C0E9FF04C043
:100C3000F3FF05504BEC34F02D0A06E1010E146E63
:100C4000032A02E3044A052A03C0E9FF04C0F3FFB4
:100C500005504BEC34F0200A08E1010E176E200E0F
:100C6000186E032A02E3044A052A03C0E9FF04C000
:100C7000F3FF05504BEC34F02B0A06E1010E176E22
:100C8000032A02E3044A052A03C0E9FF04C0F3FF74
:100C900005504BEC34F0196E310E195C2BE33A0E13
:100CA000195C28E203C019F004C01AF005C01BF05B
:100CB00019C0E9FF1AC0F3FF1B504BEC34F01C6E57
:100CC000300E1C5C11E33A0E1C5C0EE213500A0D50
:100CD000F3CF1DF01C501D26D00E1D24136E192AB3
:100CE00002E31A4A1B2AE4D719C003F01AC004F021
:100CF0001BC005F003C0E9FF04C0F3FF05504BEC37
:100D000034F02E0A2DE1032A02E3044A052A166A6A
:100D100003C019F004C01AF005C01BF019C0E9FFA8
:100D20001AC0F3FF1B504BEC34F01C6E300E1C5CF1
:100D300011E33A0E1C5C0EE216500A0DF3CF1DF0C3
:100D40001C501D26D00E1D24166E192A02E31A4AC5
:100D50001B2AE4D719C003F01AC004F01BC005F029
:100D600003C0E9FF04C0F3FF05504BEC34F0196EEB
:100D70006C0A07E1010E0C6E032A02E3044A052AFD
:100D800009D01950680A06E1010E0E6E032A02E32B
:100D9000044A052A03C0E9FF04C0F3FF05504BECE9
:100DA00034F0750A06E1010E106E032A02E3044ACC
:100DB000052A03C0E9FF04C0F3FF05504BEC34F0F3
:100DC000196E730A05E1010E0D6E200E156E3FD0EF
:100DD0001950780A03E1100E116E39D01950580AD3
:100DE00005E1100E116E010E126E31D01950630A1A
:100DF00002E1116A2CD019506F0A03E1080E116E3E
:100E000026D01950660A03E1010E0F6E20D019504A
:100E1000640A1DE01950690A1AE0105005E0FF0E3F
:100E200003260422052213D01950E56E0250E56E08
:100E30000150E56E0050E56EEFEC24F0040EE12663
:100E4000094A0A2A032A02E3044A052AA3D60D50B6
:100E500021E00650030F0D6E000E0720196E000EE4
:100E600008201A6E0DC006F019C007F01AC008F06D
:100E7000FD0E0D26FF0E19221A220DC0E9FF19C022
:100E8000F3FF1A50ECEC32F00D6EF3CF19F0F4CF03
:100E90001AF0FDD00F500DE0000E1A6E120E196EF2
:100EA000A60E0D6E040E0626000E072208221668F6
:100EB000EED016680C5023E00650040F0C6E000EA6
:100EC00007200F6E000E08201B6E0CC006F00FC02E
:100ED00007F01BC008F0FC0E0C26FF0E0F221B2291
:100EE0000CC0E9FF0FC0F3FF1B5055EC32F00C6E45
:100EF000F3CF0FF0F4CF1BF0E9CF1CF067D00E500A
:100F00002FE00650020F0E6E000E07201D6E000E21
:100F100008201E6E0EC006F01DC007F01EC008F0AF
:100F2000FE0E0E26FF0E1D221E220EC0E9FF1DC062
:100F3000F3FF1E50ABEC33F00E6E0EC00CF00F6AD8
:100F40001B6A1C6A11500A0A03E11050D8B43ED043
:100F50000C500E6E0EC00CF00F6A1B6A1C6A36D065
:100F60000650020F0E6E000E07201D6E000E0820A8
:100F70001E6E0EC006F01DC007F01EC008F0FE0E6B
:100F80000E26FF0E1D221E220EC0E9FF1DC0F3FF1C
:100F90001E50ABEC33F00E6EF3CF1DF00EC00CF014
:100FA0001DC00FF0E86A1DBEFF0E1B6E1C6E1150B7
:100FB0000A0A02E110500AE00C500E6E0F501D6E2E
:100FC0000EC00CF01DC00FF01B6A1C6A040E196ED7
:100FD000620E0D6E800E1A6E1150D8B440D01050B3
:100FE00013E01150E56E040EE56E620EE56E1C50C6
:100FF000E56E1B50E56E0F50E56E0C50E56E40EC53
:101000001DF0070EE12612D01150E56E040EE56EBC
:10101000620EE56E1C50E56E1B50E56E0F50E56EDE
:101020000C50E56E00EC2AF0070EE12617502FE079
:101030000DC0E9FF19C0F3FF1A504BEC34F02D0A34
:1010400026E0FF0E0D2619221A2218C0E5FF0DC05A
:10105000E9FF19C0F3FF1A50B8EC34F018D00CC0F7
:10106000E5FF0DC0E9FF19C0F3FF1A50B8EC34F0EA
:101070000D50010F0C6E000E19200E6E000E1A207E
:10108000E56A0CC0E9FF0EC0F3FFB8EC34F00DC008
:101090000CF019C00EF01AC00FF013C010F0105071
:1010A00010E00CC0E9FF0EC0F3FF0F504BEC34F022
:1010B000176E175006E00C2A02E30E4A0F2A10069C
:1010C000EED710C013F014501EE109C00CF00AC096
:1010D0000EF010C00FF00F5010E01550E56E0250EA
:1010E000E56E0150E56E0050E56EEFEC24F0040E65
:1010F000E1260C4A0E2A0F06EED70CC009F00EC0EE
:101100000AF00FC013F016C00CF00DC00DF019C09E
:101110000EF01AC00FF009C010F00AC015F00DC093
:10112000E9FF0EC0F3FF0F504BEC34F0166E165073
:10113000D8B43ED00CC016F0176A161E171E1650F3
:10114000171005E00CC016F00C06165031E00DC06B
:10115000E9FF0EC0F3FF0F504BEC34F0116E12504C
:1011600010E01150E56E68EC33F0166EE652165042
:1011700004E0DF0E1114166E02D011C016F016C076
:1011800011F01150E56E0250E56E0150E56E005011
:10119000E56EEFEC24F0040EE1260D2A02E30E4A80
:1011A0000F2A104A152A1350D8B4B9D71306B7D747
:1011B00010C009F015C00AF014502BE010C00CF05C
:1011C00015C00DF013C00EF00E501FE0200EE56E9E
:1011D0000250E56E0150E56E0050E56EEFEC24F034
:1011E000040EE1260C4A0D2A0E06EED70B50E56ED2
:1011F0000250E56E0150E56E0050E56EEFEC24F014
:10120000040EE126094A0A2A04D00CC009F00DC0D8
:101210000AF0032A02E3044A052ACAEF05F00AC0CD
:10122000F3FF0950E4CF1EF0E4CF1DF0E4CF1CF033
:10123000E4CF1BF0E4CF1AF0E4CF19F0E4CF18F0BC
:10124000E4CF17F0E4CF16F0E4CF15F0E4CF14F0BC
:10125000E4CF13F0E4CF12F0E4CF11F0E4CF10F0BC
:10126000E4CF0FF0E4CF0EF0E4CF0DF0E4CF0CF0BC
:10127000E4CF0BF0E4CF0AF0E4CF09F0E4CF08F0BC
:10128000E4CF07F0E4CF06F0E4CF05F0E4CF04F0BC
:10129000E4CF03F0E4CF02F0E4CF01F0E4CF00F0BC
:1012A000E4CFD9FF12003C4E4F20464C4F41543EF4
:1012B0000000D9CFE5FFE1CFD9FF00C0E5FF01C0B5
:1012C000E5FF02C0E5FF03C0E5FF04C0E5FF05C080
:1012D000E5FF06C0E5FF07C0E5FF08C0E5FF09C060
:1012E000E5FF0AC0E5FF0BC0E5FF0CC0E5FF0DC040
:1012F000E5FF020EDBCF00F0030EDBCF01F0040EA2
:10130000DBCF02F00050090F066E000E0120076EC1
:10131000000E0220086E0B6E07500A6E0650096E12
:10132000E56A0D0EE56E0B50E56E0A50E56E09504C
:10133000E56E800EE56E040EE56E470EE56E84ECFC
:1013400026F0080EE12600C009F001C00AF002C034
:101350000BF0E56AE56E0B50E56E0A50E56E09503C
:10136000E56E800EE56E040EE56E810EE56E84EC92
:1013700026F0080EE12681C403F00350010A04E0C0
:101380000350030A01E018D104015C51036E5D5162
:10139000046E04014F51056E5051096E0550035CF7
:1013A00006017C6F095004587D6F04015C510401F3
:1013B0004F6F04015D510401506F04015E5104013F
:1013C000516F04015F510401526F06017C517D1180
:1013D000D8A47ED069EC31F0036EF3CF04F0F4CFE3
:1013E00005F0E9CF09F0040154510A6E55510B6E16
:1013F00056510C6E57510D6E0A50035E0B50045A35
:101400000C50055A0D50095A03500401FC6F04504A
:10141000FD6F0550FE6F7F0E0914FF6F040153B17D
:1014200025D00401FD35FF31046EFE31036E043416
:1014300004320332000E04BEFF0E096E056E86C430
:101440000AF00B6A0C6A0D6A0D50800FF36E09509A
:10145000800FF35C08E105500C5C05E104500B5C67
:1014600002E103500A5C02E204015381040153B11A
:1014700049D04BC403F04CC404F04DC405F04EC435
:1014800009F00401FF51800FF36E0950800FF35CE7
:1014900008E10550FE5D05E10450FD5D02E10350E9
:1014A000FC5D08E203C0FCF404C0FDF405C0FEF4DA
:1014B00009C0FFF4040160A304D0010E036E046AA6
:1014C00002D00368046803C07CF604C07DF61AD01D
:1014D0000401539158C4FCF459C4FDF45AC4FEF4F9
:1014E0005BC4FFF40401FC5104014B6F0401FD5186
:1014F00004014C6F0401FE5104014D6F0401FF51C2
:1015000004014E6F0401FF51800F800F08E1000EAF
:10151000FE5D05E1000EFD5D02E1010EFC5D06E2EF
:1015200004016E6B6F6B706B716B46D00401FC51E4
:10153000036EFD51046EFE51056EFF51E56E0550C0
:10154000E56E0450E56E0350E56E010EE56E000E8B
:10155000E56AE56AE56AB8EC22F0036EF3CF04F0C1
:10156000F4CF05F0E9CF09F0080EE1267CC60AF0B9
:101570007DC60BF0E86A06017DBFFF0E0C6E0D6E96
:101580000950E56E0550E56E0450E56E0350E56EBA
:101590000D50E56E0C50E56E0B50E56E0A50E56E91
:1015A00036EC1CF004016E6FF3CF6FF4F4CF70F4DF
:1015B000E9CF71F4080EE126020E0401815DD8A086
:1015C00045D1040160A142D10050230F036E000EEB
:1015D0000120046E000E0220E56E0450E56E0350FB
:1015E000E56E0EEC00F0030EE1260050230F036EB3
:1015F000000E0120046E000E0220056E020E03266E
:10160000000E0422052203C0E9FF04C0F3FF0550C9
:1016100055EC32F0F3CF04F0F4CF05F0E9CF09F048
:101620000450036E0550046ED89004320332D890F3
:10163000043203320950E840E840C00B041209406C
:10164000E8403F0BE8BAC009056E096A05BE0968A3
:1016500004015C51035C0401726F04015D51045884
:101660000401736F04015E5105580401746F040195
:101670005F5109580401756FD88075AFD89022E387
:101680000401831D046E821D036E034A042AE86A66
:1016900004BEFF0E056E096E04017551800FF36ED6
:1016A0000950800FF35C08E10550745D05E10450BA
:1016B000735D02E10350725D05E30401726B736BAD
:1016C000746B756B04017551800F800F08E1000E7B
:1016D000745D05E1000E735D02E1010E725D1EE3B3
:1016E00082C403F083C404F0E86A040183BFFF0EE0
:1016F000056E800FF36E04017551800FF35C08E1F5
:101700007451055C05E17351045C02E17251035CA4
:1017100005E30401726B736B746B756B0401875185
:1017200009E0E86CD8900401723773377437753765
:10173000010FF9E304017551800F800F08E1000EDD
:10174000745D05E1800E735D02E1000E725D07E3DA
:10175000040172697F0E736F746B756B14D0040192
:101760007551800F810F08E1FF0E745D05E1800E59
:10177000735D02E1000E725D06E20401726B800E81
:10178000736F746975690050330F036E000E01208A
:10179000046E000E0220056E04017251096E735131
:1017A000E56E0950E56E0550E56E0450E56E035098
:1017B000E56E44EC12F0050EE12604018151030AA6
:1017C00023E10050330F036E000E0120046E000E63
:1017D0000220056E0B0E0326000E0422052203C014
:1017E000E9FF04C0F3FF055055EC32F0F3CF04F0ED
:1017F000F4CF05F00450036E0550046E035004014D
:10180000476F0450486F22D00050330F036E000E14
:101810000120046E000E0220056E0B0E0326000E42
:101820000422052203C0E9FF04C0F3FF055055EC74
:1018300032F0F3CF04F0F4CF05F00450036E0550FE
:10184000046E03500401496F04504A6F81C403F0D1
:101850000350010A04E00350030A01E07DD047C4AD
:1018600003F048C404F0E86A040148BFFF0E056EA7
:10187000096E04016E51035C0401726F04016F5123
:1018800004580401736F0401705105580401746F0A
:101890000401715109580401756F800F800F08E130
:1018A000000E745D05E1800E735D02E1000E725D55
:1018B00007E3040172697F0E736F746B756B14D04C
:1018C00004017551800F810F08E1FF0E745D05E181
:1018D000800E735D02E1000E725D06E20401726B20
:1018E000800E736F746975690050440F036E000EAB
:1018F0000120046E000E0220056E04017251096E73
:101900007351E56E0950E56E0550E56E0450E56EC5
:101910000350E56E44EC12F0050EE126440E00265D
:10192000000E012202220B0E0026000E01220222CE
:1019300000C0E9FF01C0F3FF025055EC32F0F3CFD5
:1019400001F0F4CF02F00150006E0250016E005021
:101950000401496F01504A6F0850086EE56A0D0E88
:10196000E56E800EE56E040EE56E470EE56E0850DE
:10197000E56E0750E56E0650E56E84EC26F0080E25
:10198000E126E4CF0DF0E4CF0CF0E4CF0BF0E4CF90
:101990000AF0E4CF09F0E4CF08F0E4CF07F0E4CF99
:1019A00006F0E4CF05F0E4CF04F0E4CF03F0E4CF99
:1019B00002F0E4CF01F0E4CF00F0E4CFD9FF120051
:1019C00025642025640A000000C0E5FF01C0E5FF92
:1019D00002C0E5FF03C0E5FF05C0E5FFF6EC34F00B
:1019E000FBEC2DF09482820E006E0F0E016E0F0E36
:1019F000036E380E0026035001220F0E036E800E78
:101A0000005E0350015A820E026E0F0E036E0F0E1F
:101A1000056E380E0226055003220F0E056E800E4D
:101A2000025E0550035A02C0E9FF03C0EAFFEFCF90
:101A300002F0029200C0E9FF01C0EAFF02C0EFFF1E
:101A4000010EE56E800EE56E0F0EE56E820EE56E00
:101A5000000EE56A42EC2EF0050EE1269486820E19
:101A6000006E0F0E016E0F0E036E380E002603502F
:101A700001220F0E036E800E005E0350015A820E8B
:101A8000026E0F0E036E0F0E056E380E0226055005
:101A900003220F0E056E800E025E0550035A02C02F
:101AA000E9FF03C0EAFFEFCF02F0029600C0E9FFB2
:101AB00001C0EAFF02C0EFFF030EE56E800EE56E87
:101AC0000F0EE56E820EE56E010EE56E42EC2EF015
:101AD000050EE1269488820E006E0F0E016E0F0E29
:101AE000036E380E0026035001220F0E036E800E87
:101AF000005E0350015A820E026E0F0E036E0F0E2F
:101B0000056E380E0226055003220F0E056E800E5C
:101B1000025E0550035A02C0E9FF03C0EAFFEFCF9F
:101B200002F0029800C0E9FF01C0EAFF02C0EFFF27
:101B3000040EE56E800EE56E0F0EE56E820EE56E0C
:101B4000020EE56E42EC2EF0050EE126948A820E1E
:101B5000006E0F0E016E0F0E036E380E002603503E
:101B600001220F0E036E800E005E0350015A820E9A
:101B7000026E0F0E036E0F0E056E380E0226055014
:101B800003220F0E056E800E025E0550035A02C03E
:101B9000E9FF03C0EAFFEFCF02F0029A00C0E9FFBD
:101BA00001C0EAFF02C0EFFF050EE56E800EE56E94
:101BB0000F0EE56E820EE56E030EE56E42EC2EF022
:101BC000050EE12669EC31F0F3CF01F0F4CF02F01D
:101BD000E9CF03F0880F0401346F130E0120356F35
:101BE000000E0220366F000E0320376F8A98899C02
:101BF0008B84040189859398929C94940401929516
:101C00009283800E006E040E016E0F0E036E380E6E
:101C10000026035001220F0E036E800E005E03505B
:101C2000015A800E026E040E036E0F0E056E380E02
:101C30000226055003220F0E056E800E025E05502F
:101C4000035A02C0E9FF03C0EAFFEFCF02F002929D
:101C500000C0E9FF01C0EAFF02C0EFFF9283800EDF
:101C6000006E040E016E0F0E036E380E0026035038
:101C700001220F0E036E800E005E0350015A800E8B
:101C8000026E040E036E0F0E056E380E022605500E
:101C900003220F0E056E800E025E0550035A02C02D
:101CA000E9FF03C0EAFFEFCF02F0029200C0E9FFB4
:101CB00001C0EAFF02C0EFFF9283800E006E040EA7
:101CC000016E0F0E036E380E0026035001220F0E18
:101CD000036E800E005E0350015A800E026E040EE9
:101CE000036E0F0E056E380E0226055003220F0EEE
:101CF000056E800E025E0550035A02C0E9FF03C064
:101D0000EAFFEFCF02F0029200C0E9FF01C0EAFF54
:101D100002C0EFFF0C0EBD6EBD9ABD98BE6AB96AD7
:101D2000B9860401936B020E946F956B0A0E966F41
:101D3000976B100E986F070E996F9A919A83800E89
:101D4000E56E040EE56EB60EE56ED2EC2BF0030EDA
:101D5000E126800EE56E040EE56ED70EE56E24ECEE
:101D600022F0030EE126800EE56E040EE56EC60E2F
:101D7000E56E24EC22F0030EE1260401B16BB26B98
:101D8000B36BB46BB591B5959C6B9D6B9E6B9F6B64
:101D9000A46BA56BA66BA76B8A96899E8B800401AA
:101DA00089859396929E9490040192959283800ED9
:101DB000006E040E016E0F0E036E380E00260350E7
:101DC00001220F0E036E800E005E0350015A800E3A
:101DD000026E040E036E0F0E056E380E02260550BD
:101DE00003220F0E056E800E025E0550035A02C0DC
:101DF000E9FF03C0EAFFEFCF02F0029200C0E9FF63
:101E000001C0EAFF02C0EFFF9283800E006E040E55
:101E1000016E0F0E036E380E0026035001220F0EC6
:101E2000036E800E005E0350015A800E026E040E97
:101E3000036E0F0E056E380E0226055003220F0E9C
:101E4000056E800E025E0550035A02C0E9FF03C012
:101E5000EAFFEFCF02F0029200C0E9FF01C0EAFF03
:101E600002C0EFFF9283800E006E040E016E0F0E13
:101E7000036E380E0026035001220F0E036E800EF3
:101E8000005E0350015A800E026E040E036E0F0EA8
:101E9000056E380E0226055003220F0E056E800EC9
:101EA000025E0550035A02C0E9FF03C0EAFFEFCF0C
:101EB00002F0029200C0E9FF01C0EAFF02C0EFFF9A
:101EC0000C0E666E669A6698676A0601006B020ED3
:101ED000016F026B0A0E036F046B100E056F070E85
:101EE000066F07910783800EE56E060EE56E230EE2
:101EF000E56ED2EC2BF0030EE126800EE56E060EA9
:101F0000E56E440EE56E24EC22F0030EE126800E11
:101F1000E56E060EE56E330EE56E24EC22F0030E40
:101F2000E12606011E6B1F6B206B216B229122950F
:101F3000096B0A6B0B6B0C6B116B126B136B146BD5
:101F400006EC27F0CDEC34F0800EE56E04017F51F5
:101F5000E56E7E51E56E13EC2DF0030EE126800E4A
:101F6000E56E06017751E56E7651E56E13EC2DF0C6
:101F7000030EE126E4CF05F0E4CF03F0E4CF02F056
:101F8000E4CF01F0E4CF00F01200434D202564209F
:101F900025640A0043002563000000C0E5FF01C07E
:101FA000E5FF02C0E5FF03C0E5FFF7EC20F0A6EC7B
:101FB0001FF069EC31F0006EF3CF01F0F4CF02F0C6
:101FC000E9CF03F004013451005E3551015A365116
:101FD000025A3751035A039E3F0E035C08E1FF0E7D
:101FE000025C05E1FF0E015C02E1FF0E005CD8B06F
:101FF0003BEF12F069EC31F0F3CF01F0F4CF02F0D7
:10200000E9CF03F0880F0401346F130E0120356F00
:10201000000E0220366F000E0320376F04017F513F
:10202000E56E7E51E56EEBEC1EF0006EF3CF01F035
:10203000E652E652005004019E6F01509F6F060168
:102040007751E56E7651E56EEBEC1EF0006EF3CF46
:1020500001F0E652E652005006010B6F01500C6F82
:1020600082B207D0D88004019FAFD89002E39E6B64
:102070009F6B82B60BD004019F51800F800F02E14D
:10208000010E9E5D03E304019E6B9F6B82B807D037
:10209000D88006010CAFD89002E30B6B0C6B82BAB0
:1020A0000BD006010C51800F800F02E1010E0B5D79
:1020B00003E306010B6B0C6B04C0E5FFF2CF04F0E9
:1020C000F29E0401A9510401546F0401AA510401B4
:1020D000556F0401AB510401566F0401AC5104016A
:1020E000576F0401AD510401586F0401AE51040152
:1020F000596F0401AF5104015A6F0401B05104013A
:102100005B6F0401B15104015C6F0401B251040121
:102110005D6F0401B35104015E6F0401B451040109
:102120005F6F0401B5510401606F0401AD6BAE6BCC
:10213000AF6BB06B04BEF28EE4CF04F0800EE56EA0
:10214000040EE56E930EE56E59EC09F0030EE126E0
:102150009EC47EF69FC47FF606017F51800F7C0FE0
:1021600002E1000E7E5D04E306017E69030E7F6FCF
:1021700006017F51800F840F02E1010E7E5D05E2B2
:10218000010E06017E6FFC0E7F6F06017F51800FEE
:10219000800F02E1010E7E5D10E306017F51800F8A
:1021A000F36E04019751800FF35C03E19651060131
:1021B0007E5D03E206017E6B7F6BD88006017FAFF8
:1021C000D89015E30401971D016E961D006E004A1C
:1021D000012A0150800FF36E06017F51800FF35CDE
:1021E00002E17E51005C03E206017E6B7F6B04011D
:1021F0009AA309D0B5A507D0D88006017FAFD890A3
:1022000002E37E6B7F6BD88006017FAFD89007E337
:102210007E51FF0F006E030E7F21016E04D07EC63B
:1022200000F07FC601F000C080F601C081F6060113
:102230008051020BE840010BE838E844F46EBD50D1
:10224000DF0BF410BD6E8051010B010BE838F46E0A
:10225000BD50EF0BF410BD6E81358131016E8031C0
:10226000006E0134013200320050BE6ED88006018B
:102270007FAFD89002E3898C01D0899C04C0E5FF30
:10228000F2CF04F0F29E060116510401546F0601CC
:1022900017510401556F060118510401566F0601CC
:1022A00019510401576F06011A510401586F0601B4
:1022B0001B510401596F06011C5104015A6F06019C
:1022C0001D5104015B6F06011E5104015C6F060184
:1022D0001F5104015D6F0601205104015E6F06016C
:1022E000215104015F6F060122510401606F060154
:1022F0001A6B1B6B1C6B1D6B04BEF28EE4CF04F0DB
:10230000800EE56E060EE56E000EE56E59EC09F0E6
:10231000030EE1260BC67EF60CC67FF606017F5142
:10232000800F7C0F02E1000E7E5D04E306017E69F2
:10233000030E7F6F06017F51800F840F02E1010EB3
:102340007E5D05E2010E06017E6FFC0E7F6F0601C9
:102350007F51800F800F02E1010E7E5D10E30601C8
:102360007F51800FF36E06010451800FF35C03E18F
:10237000035106017E5D03E206017E6B7F6BD88010
:1023800006017FAFD89015E30601041D016E031D01
:10239000006E004A012A0150800FF36E06017F5142
:1023A000800FF35C02E17E51005C03E206017E6B6C
:1023B0007F6B060107A309D022A507D0D8800601AC
:1023C0007FAFD89002E37E6B7F6BD88006017FAF32
:1023D000D89007E37E51FF0F006E030E7F21016E40
:1023E00004D07EC600F07FC601F000C080F601C0B8
:1023F00081F606018051020BE840010BE838E84401
:10240000F46E6650DF0BF410666E8051010B010B09
:10241000E838F46E6650EF0BF410666E813581314A
:10242000016E8031006E0134013200320050676E5F
:10243000D88006017FAFD89002E3898E01D0899EB3
:102440000601882B150E885D16E306010C51E56E1A
:102450000B51E56E04019F51E56E9E51E56E000E35
:10246000E56E1F0EE56E8A0EE56EC8EC2EF0070EC7
:10247000E1260601886BE4CF03F0E4CF02F0E4CF5D
:1024800001F0E4CF00F01200D9CFE5FFE1CFD9FF92
:1024900000C0E5FF01C0E5FF02C0E5FF03C0E5FFA6
:1024A00004C0E5FF05C0E5FF06C0E5FF07C0E5FF86
:1024B00008C0E5FF09C0E5FF0AC0E5FF0BC0E5FF66
:1024C0000CC0E5FF0DC0E5FF0EC0E5FF020EDBCF3F
:1024D00000F0030EDBCF01F0040EDBCF02F0050E9F
:1024E000DBCF03F0060EDBCF04F002500A6E015082
:1024F000096E0050086EE56A110EE56E0A50E56E31
:102500000950E56E0850E56E800EE56E040EE56E2E
:10251000230EE56E84EC26F0080EE12632C405F0A9
:1025200033C406F0E86A040133BFFF0E076E0401EE
:102530007D6F06507C6F05507B6F7A6B03C005F092
:1025400004C006F0E86A04BEFF0E076E086E23C4DE
:1025500009F0E56AE56AE56A0950E56E0850E56E3E
:102560000750E56E0650E56E0550E56E36EC1CF042
:102570000401766FF3CF77F4F4CF78F4E9CF79F4F0
:10258000080EE12604012451D8B4E3D00450800F92
:10259000800F02E1010E035C25E304012951800F45
:1025A0007C0F08E1000E285D05E1000E275D02E1C9
:1025B000000E265D17E204013151800FF36E040115
:1025C0007D51800FF35C0DE17C510401305D09E128
:1025D00004017B5104012F5D04E104017A510401DF
:1025E0002E5D33E3D88004AED890D8A043D0040148
:1025F0002951800F840F08E1000E285D05E1000ECF
:10260000275D02E1010E265D35E304017D1D0C6EA0
:102610007C1D0B6E7B1D0A6E7A1D096E092A04E172
:102620000A2A02E10B4A0C2A0C50800FF36E0401B7
:102630003151800FF35C08E130510B5C05E12F5103
:102640000A5C02E12E51095C15E2055004012625C1
:10265000096E065027210A6E075028210B6E08507C
:1026600029210C6E0950266F0A50276F0B50286FD6
:102670000C50296F0350041031E126C403F027C425
:1026800004F028C409F029C40AF0E56AE56AE56A9D
:10269000100EE56E0A50E56E0950E56E0450E56EC9
:1026A0000350E56E1CEC1EF00B6EF3CF0CF0F4CF74
:1026B0000DF0E9CF0EF0080EE1260B50035E0C5032
:1026C000045A0D50095A0E500A5A03500401266F3D
:1026D0000450276F0950286F0A50296F04012639CA
:1026E0000F0B036E2739046EF00B041A03262851D2
:1026F000E838F00B041228390F0B096E29390A6EDD
:10270000F00B0A1A0926F00E0AB60A2624C40BF0AA
:10271000E56AE56AE56A0B50E56E0A50E56E095018
:10272000E56E0450E56E0350E56E36EC1CF0036E6A
:10273000F3CF04F0F4CF09F0E9CF0AF0080EE12658
:1027400003500401762704507723095078230A5058
:10275000792304012551D8B465D02A51055C0601BE
:10276000556F04012B5106580601566F04012C5178
:1027700007580601576F04012D5108580601586F7C
:10278000800F800F08E1010E575D05E1000E565DD8
:1027900002E1000E555D06E3060155695669576B67
:1027A000586B13D006015851800F810F08E1FF0EBE
:1027B000575D05E1000E565D02E1000E555D05E234
:1027C0000601556B566B57695869060155515525D9
:1027D000036E5635046E5735096E58350A6E25C49A
:1027E0000BF0E56AE56AE56A0B50E56E0A50E56EA6
:1027F0000950E56E0450E56E0350E56E36EC1CF0B2
:10280000036EF3CF04F0F4CF09F0E9CF0AF0080E1D
:10281000E1260350040176270450772309507823DA
:102820000A507923055004012A6F06502B6F075078
:102830002C6F08502D6F04017D51800FF36E040141
:102840007951800FF35C0DE1785104017C5D09E161
:102850000401775104017B5D04E104017651040118
:102860007A5D11E204017A5104012E6F04017B515B
:1028700004012F6F04017C510401306F04017D516C
:102880000401316F3AD004017D1D066E7C1D056E7A
:102890007B1D046E7A1D036E032A04E1042A02E103
:1028A000054A062A04017951800FF36E0650800F05
:1028B000F35C08E10550785D05E10450775D02E1C5
:1028C0000350765D0AE2035004012E6F04502F6F0F
:1028D0000550306F0650316F10D00401765104015D
:1028E0002E6F0401775104012F6F04017851040108
:1028F000306F040179510401316FE56A110EE56E04
:10290000800EE56E040EE56E230EE56E0250E56E58
:102910000150E56E0050E56E84EC26F0080EE126CD
:10292000E4CF0EF0E4CF0DF0E4CF0CF0E4CF0BF0E9
:10293000E4CF0AF0E4CF09F0E4CF08F0E4CF07F0E9
:10294000E4CF06F0E4CF05F0E4CF04F0E4CF03F0E9
:10295000E4CF02F0E4CF01F0E4CF00F0E4CFD9FF00
:102960001200D9CFE5FFE1CFD9FF00C0E5FF01C0DC
:10297000E5FF02C0E5FF03C0E5FF04C0E5FF05C0B9
:10298000E5FF06C0E5FF07C0E5FF08C0E5FF09C099
:10299000E5FF0AC0E5FF0BC0E5FF0CC0E5FF020E36
:1029A000DBCF00F0030EDBCF01F0040EDBCF02F033
:1029B000036A046A93EC31F0056EFE0A01E077D0F9
:1029C00025EC2CF093EC31F0066E030E065CD8A0DB
:1029D0005AD0060E065CD8B056D0FD0E0624076EFF
:1029E000FA6AFB6A0734FA36E834FA36FC0BFE0F53
:1029F000E56E290EFA22000EFB22E450F96E05EF77
:102A000015F017EF15F030EF15F00050090F076EB5
:102A1000000E0120086E000E022007C0E9FF08C06A
:102A2000F3FFABEC33F0036EF3CF04F02CD0005087
:102A3000090F076E000E0120086E000E0220096EBD
:102A4000020E0726000E0822092207C0E9FF08C06F
:102A5000F3FF0950ABEC33F0036EF3CF04F013D067
:102A60000050070F076E000E0120086E000E0220B6
:102A700007C0E9FF08C0F3FF4BEC34F0010B076E11
:102A800007C003F0046A06C007F00450E56E035067
:102A9000E56EE56A0750E56E000EE56E190EE56E0F
:102AA000C00EE56EC8EC2EF0070EE1269AD1080E96
:102AB000055CD8B096D1FA6AFB6A0534FA36E83478
:102AC000FA36FC0BD40FE56E2A0EFA22000EFB221A
:102AD000E450F96E7AEF15F095EF15F0A7EF15F0C9
:102AE000B9EF15F0EBEF15F021EF16F040EF16F00F
:102AF0009DEF16F00050230F056E000E0120076EAB
:102B0000000E0220E56E0750E56E0550E56E0EECF6
:102B100017F0030EE126020EE56E00C0E9FF01C0CA
:102B2000F3FF0250B8EC34F05CD10050330F056E67
:102B3000000E0120076E000E0220E56E0750E56EC4
:102B40000550E56EC5EC18F0030EE1264AD10050A1
:102B5000440F056E000E0120076E000E0220E56E88
:102B60000750E56E0550E56EC5EC18F0030EE12642
:102B700038D10050090F056E000E0120076E000EBF
:102B80000220086E93EC31F00C6E0B6AE56A0CC003
:102B9000F4FF05C0E9FF07C0F3FF085095EC34F0DF
:102BA00093EC31F00A6A0B260A500C220BC0E5FFA9
:102BB0000CC0F4FF05C0E9FF07C0F3FF085095EC17
:102BC00034F0010EE56E00C0E9FF01C0F3FF0250D2
:102BD000B8EC34F006D10050090F056E000E01204C
:102BE000076E000E0220086E020E0526000E072258
:102BF000082293EC31F00C6E0B6AE56A0CC0F4FF0E
:102C000005C0E9FF07C0F3FF085095EC34F093ECE2
:102C100031F00A6A0B260A500C220BC0E5FF0CC0EB
:102C2000F4FF05C0E9FF07C0F3FF085095EC34F04E
:102C3000E56A00C0E9FF01C0F3FF0250B8EC34F0D0
:102C4000D0D00050070F056E000E0120076E000E59
:102C50000220086E93EC31F0010BF46E05C0E9FF21
:102C600007C0F3FF08504BEC34F0FE0BF410E56E98
:102C700005C0E9FF07C0F3FF0850B8EC34F0B1D04D
:102C800093EC31F0066E0050160F056E000E012019
:102C9000076E000E0220086E05500C0F096E000E24
:102CA00007200A6E000E08200B6E0650D880E866DA
:102CB000D8900C6A0C360C50D880E866D8900C6A14
:102CC0000C360C50010BF46E09C0E9FF0AC0F3FF8B
:102CD0000B504BEC34F0FE0BF410E56E09C0E9FF2D
:102CE0000AC0F3FF0B50B8EC34F00650010A01E0C3
:102CF00078D0080E0526000E07220822E56AF46A3D
:102D0000F66AF76A05C0E9FF07C0F3FF08503AEC1E
:102D100034F00050230F056E000E0120066E000EE9
:102D20000220E56AE56AE56E0650E56E0550E56E3F
:102D300062EC24F0050EE12654D093EC31F0046EE1
:102D4000036A93EC31F0066A032606500422005011
:102D5000160F056E000E0120066E000E0220076E93
:102D600005500C0F086E000E0620096E000E07209D
:102D70000A6E08C0E9FF09C0F3FF4BEC34F0E880AD
:102D8000E56E08C0E9FF09C0F3FF0A50B8EC34F063
:102D9000080E0526000E0622072203C008F004C014
:102DA00009F008C0E5FF09C0F4FFF66AF76A05C03C
:102DB000E9FF06C0F3FF07503AEC34F0230E00267B
:102DC000000E012202220450E56E0350E56E02500F
:102DD000E56E0150E56E0050E56EC8EC28F0050E7A
:102DE000E126E4CF0CF0E4CF0BF0E4CF0AF0E4CF1F
:102DF00009F0E4CF08F0E4CF07F0E4CF06F0E4CF29
:102E000005F0E4CF04F0E4CF03F0E4CF02F0E4CF28
:102E100001F0E4CF00F0E4CFD9FF1200D9CFE5FFF5
:102E2000E1CFD9FF00C0E5FF01C0E5FF02C0E5FF2B
:102E300003C0E5FF04C0E5FF05C0E5FF06C0E5FFF0
:102E400007C0E5FF08C0E5FF09C0E5FF0AC0E5FFD0
:102E50000BC0E5FF020EDBCF00F0030EDBCF01F06D
:102E6000040EDBCF02F0036A046A93EC31F0056EC6
:102E7000FE0A01E094D025EC2CF093EC31F0066EC4
:102E800006500EE00650010A1DE00650020A2CE032
:102E900006500A0A3BE006500B0A01E142D06DD011
:102EA0000050060F076E000E0120086E000E022073
:102EB00007C0E9FF08C0F3FFABEC33F0036EF3CFBC
:102EC00004F05BD000500C0F076E000E0120086E5E
:102ED000000E022007C0E9FF08C0F3FFABEC33F09F
:102EE000036EF3CF04F049D000500E0F076E000EB2
:102EF0000120086E000E022007C0E9FF08C0F3FFA2
:102F0000ABEC33F0036EF3CF04F037D000C0E9FF31
:102F100001C0F3FF0250ABEC33F0036EF3CF04F0CB
:102F20002CD00050020F076E000E0120086E000E1C
:102F30000220096E07C0E9FF08C0F3FF095055ECF5
:102F400032F0F3CF08F0F4CF09F0E9CF0AF00850DF
:102F5000076E0950086ED89008320732D8900832B0
:102F600007320A50E840E840C00B08120A40E84027
:102F70003F0B0750036E0850046E0450E56E03507B
:102F8000E56EE56A0650E56E000EE56E580EE56EDC
:102F9000420EE56EC8EC2EF0070EE126DBD00550A0
:102FA00014E00550010A3AE00550020A01E15FD041
:102FB00005500A0A01E184D005500B0A01E199D0BD
:102FC00005500C0A01E1AED0C5D00050060F056EC9
:102FD000000E0120066E000E0220076E93EC31F009
:102FE0000B6E0A6AE56A0BC0F4FF05C0E9FF06C074
:102FF000F3FF075095EC34F093EC31F0096A0A26A0
:1030000009500B220AC0E5FF0BC0F4FF05C0E9FF21
:1030100006C0F3FF075095EC34F09CD000500C0F25
:10302000056E000E0120066E000E0220076E93EC66
:1030300031F00B6E0A6AE56A0BC0F4FF05C0E9FFC8
:1030400006C0F3FF075095EC34F093EC31F0096AB9
:103050000A2609500B220AC0E5FF0BC0F4FF05C089
:10306000E9FF06C0F3FF075095EC34F073D0005031
:103070000E0F056E000E0120066E000E0220076E78
:1030800093EC31F00B6E0A6AE56A0BC0F4FF05C0E1
:10309000E9FF06C0F3FF075095EC34F093EC31F0F4
:1030A000096A0A2609500B220AC0E5FF0BC0F4FF8B
:1030B00005C0E9FF06C0F3FF075095EC34F04AD095
:1030C00093EC31F0046E036A93EC31F0066A032648
:1030D000065004220450E56E0350E56E0250E56E82
:1030E0000150E56E0050E56E6DEC30F0050EE12606
:1030F00031D093EC31F0046E036A93EC31F0066A40
:103100000326065004220450E56E0350E56E02507B
:10311000E56E0150E56E0050E56E62EC24F0050EA0
:10312000E12618D093EC31F0046E036A93EC31F091
:10313000066A0326065004220450E56E0350E56E2D
:103140000250E56E0150E56E0050E56EC8EC28F0C7
:10315000050EE126E4CF0BF0E4CF0AF0E4CF09F04E
:10316000E4CF08F0E4CF07F0E4CF06F0E4CF05F0B9
:10317000E4CF04F0E4CF03F0E4CF02F0E4CF01F0B9
:10318000E4CF00F0E4CFD9FF1200D9CFE5FFE1CFC3
:10319000D9FF00C0E5FF01C0E5FF02C0E5FF03C0A5
:1031A000E5FF04C0E5FF05C0E5FF06C0E5FF07C079
:1031B000E5FF08C0E5FF020EDBCF00F0030EDBCF1A
:1031C00001F0040EDBCF02F0036A046A93EC31F0E5
:1031D000056EFE0A01E075D025EC2CF093EC31F081
:1031E000066E040E065CD8B05AD0FA6AFB6A063442
:1031F000FA36E834FA36FC0B080FE56E320EFA2286
:10320000000EFB22E450F96E0CEF19F018EF19F0E4
:103210002BEF19F03EEF19F000C0E9FF01C0F3FFFA
:1032200002504BEC34F0076E07C003F0046A37D04D
:103230000050010F076E000E0120086E000E0220E4
:1032400007C0E9FF08C0F3FF4BEC34F0076E07C07E
:1032500003F0046A24D00050020F076E000E012014
:10326000086E000E022007C0E9FF08C0F3FF4BEC18
:1032700034F0076E07C003F0046A11D000500F0F3E
:10328000076E000E0120086E000E022007C0E9FF45
:1032900008C0F3FFABEC33F0036EF3CF04F004503F
:1032A000E56E0350E56EE56A0650E56E000EE56ECC
:1032B000450EE56E680EE56EC8EC2EF0070EE126B1
:1032C0008DD0040E055CD8B089D0FA6AFB6A05344B
:1032D000FA36E834FA36FC0BE80FE56E320EFA22C5
:1032E000000EFB22E450F96E7CEF19F089EF19F023
:1032F000B4EF19F0CAEF19F093EC31F0036E03C08C
:10330000E5FF00C0E9FF01C0F3FF0250B8EC34F064
:1033100065D00050010F036E000E0120046E000EF8
:103320000220056E93EC31F0066E06C0E5FF03C087
:10333000E9FF04C0F3FF0550B8EC34F00650D8A400
:103340004DD00050030F036E000E0120046E000EDE
:103350000220E56AF46AF66AF76A03C0E9FF04C06E
:10336000F3FF3AEC34F03AD00050020F036E000E37
:103370000120046E000E0220056E93EC31F0066E03
:1033800006C0E5FF03C0E9FF04C0F3FF0550B8EC39
:1033900034F024D00F0E0026000E0122022293ECFE
:1033A00031F0066E056AE56A06C0F4FF00C0E9FF69
:1033B00001C0F3FF025095EC34F093EC31F0046A55
:1033C00005260450062205C0E5FF06C0F4FF00C034
:1033D000E9FF01C0F3FF025095EC34F0E4CF08F0B0
:1033E000E4CF07F0E4CF06F0E4CF05F0E4CF04F03B
:1033F000E4CF03F0E4CF02F0E4CF01F0E4CF00F03B
:10340000E4CFD9FF120000C0E5FF01C0E5FF02C014
:10341000E5FF03C0E5FF04013E51D8B40CD1A3A8D9
:103420001DD0A4A81BD0060193510601901905E1F7
:1034300079EC34F00601906BFED0000E0601932566
:10344000006E016A040E012200C0E9FF01C0EAFF1C
:10345000EFCF8CF6932B8CC673FFEDD0A3AAEBD0E5
:10346000A4AAE9D071A205D00601918179EC34F0CB
:10347000E2D071A405D00601918379EC34F0DBD061
:1034800071A048D074CF8CF63FC400F0016A008E62
:103490008CC602F0036A0250001803E103500118C1
:1034A00001E004D0060191897196C5D006018C51C6
:1034B00004E08C5104013F1929E1060191997196AC
:1034C00006018C5103E00601919702D00601918715
:1034D0008CC695F68EC696F606018E51006E0004D7
:1034E0000601976F600E06019625006E016A000EB8
:1034F000012200C0E9FF01C0EAFF8CC6EFFF962B56
:103500009651800A02E10601966B95D006019199C9
:10351000718691D074CF8CF6060191A921D03FC459
:1035200000F0016A008E8CC602F0036A0250001897
:1035300003E10350011801E011D0A39A7198929A07
:103540000601905104E1736A79EC34F007D000C4AD
:1035500073FF010E0601936FA3886DD071866BD047
:1035600006018C510601952706019651060197190F
:103570001BE1060195510CE196C68EF6060191B746
:1035800012D0A39A7198929A736A79EC34F00BD0A6
:103590000601918591B707D0A39A7198929A010E6E
:1035A000736E79EC34F047D00601965106018F19FD
:1035B00008E106018F5106018E1903E079EC34F021
:1035C0003AD08EC600F0016A004A012AE56A800EF0
:1035D000E56E0150E56E0050E56EEEEC27F0006EF2
:1035E000040EE126005006018D6F060196190FE1C9
:1035F0008CC600F01F0E00140601976F006E020EBD
:103600000024976F06018E5106019727979F96C653
:1036100000F00601962B016A600E0026000E0122C2
:1036200000C0E9FF01C0EAFF8CC6EFFF9651800A97
:1036300002E10601966BE4CF03F0E4CF02F0E4CFA1
:1036400001F0E4CF00F0120000C0E5FF01C0E5FF8B
:1036500002C0E5FF03C0E5FF04C0E5FF05C0E5FFCC
:1036600006C0E5FF07C0E5FF08C0E5FF09C0E5FFAC
:10367000006A016A040E015CD8B0E2D0E80E0401D1
:103680004125026E036A040E032202C0E9FF03C053
:10369000EAFFEFCF02F00250FF0A01E1CAD00401B5
:1036A0004139E8441F0B026E840E0224036E046A43
:1036B000060E042203C0E9FF04C0EAFFEFCF03F0C7
:1036C00041C404F0070E0416010E056E000E066ECE
:1036D000045006E0E86CD89005360636010FFCE38E
:1036E000076A035005160750061605500610D880C5
:1036F000E866D890056A05360550D880E866D89007
:10370000056A05360550036E046A820E0226060E0F
:10371000042202C0E9FF04C0EAFFEFCF05F041C474
:1037200006F0070E0616010E076E000E086E065014
:1037300006E0E86CD89007360836010FFCE305C0B8
:1037400006F0096A065007160950081607500810B7
:10375000D880E866D890076A07360750D880E866B0
:10376000D890076A07360350071801E162D003506A
:103770001FE004014151066E070E0616010E076E8A
:1037800006500DE006E6E86CD8900736010FFDE321
:1037900006D0D89007BED8800732010FFBE3055052
:1037A000071202C0E9FF04C0EAFF07C0EFFF26D0FE
:1037B00002C0E9FF04C0EAFFEFCF05F00401415168
:1037C000066E070E0616010E076E06500DE006E6A1
:1037D000E86CD8900736010FFDE306D0D89007BEFD
:1037E000D8800732010FFBE3071C066E0550061652
:1037F00002C0E9FF04C0EAFF06C0EFFF035003E187
:10380000036A032A01D0036A41C404F0E56A035045
:10381000E56EE56A0450E56E000EE56E5C0EE56E41
:10382000780EE56EC8EC2EF0070EE126012A01C0E5
:1038300000F00401412B100E415DD8A01BD7416B55
:103840000050E4CF09F0E4CF08F0E4CF07F0E4CF74
:1038500006F0E4CF05F0E4CF04F0E4CF03F0E4CFCA
:1038600002F0E4CF01F0E4CF00F01200D9CFE5FF81
:10387000E1CFD9FF00C0E5FF01C0E5FF02C0E5FFD1
:1038800003C0E5FF04C0E5FF05C0E5FF06C0E5FF96
:1038900007C0E5FF020EDBCF00F0030EDBCF01F027
:1038A000040EDBCF02F0050EDBCF03F0060EDBCFFC
:1038B00004F0070EDBCF05F0080EDBCF06F0090E93
:1038C000DBCF07F000500601596F01505A6F0250CC
:1038D0005B6F03505C6F045006015D6F05505E6FB7
:1038E00006505F6F0750606F0601595106015F0374
:1038F000F4CF01F0F3CF00F000500601636F0150E8
:10390000646F0601595106015D03F4CF01F0F3CF56
:1039100000F000500601616F0150626F06015C51BA
:1039200006015D03F3CF00F006016451002600504C
:10393000646F06015B5106015E03F3CF01F0015095
:10394000002600500601646F06015B5106015D030D
:10395000F4CF01F0F3CF00F006016351002664516B
:1039600001220050636F0150646F06015A51060135
:103970005E03F4CF03F0F3CF02F0025000260350B1
:10398000012200500601636F0150646F06015A5115
:1039900006015F03F3CF00F000500601686F0601D7
:1039A0005A5106015D03F4CF01F0F3CF00F000504F
:1039B0000601666F0150676F0601595106016003E9
:1039C000F3CF00F0005006016C6F0601595106015B
:1039D0005E03F4CF01F0F3CF00F0005006016A6FF0
:1039E00001506B6F0601656B0601696B060165513D
:1039F00006016125006E0601665106016221016E15
:103A00000601675106016321026E06016851060135
:103A10006421036E0050616F0150626F0250636F4A
:103A20000350646F0601695106016125006E0601AD
:103A30006A5106016221016E06016B510601632184
:103A4000026E06016C5106016421036E03C0E9FF9A
:103A500002C0F4FF01C0F3FF0050E4CF07F0E4CF51
:103A600006F0E4CF05F0E4CF04F0E4CF03F0E4CFB8
:103A700002F0E4CF01F0E4CF00F0E4CFD9FF120070
:103A8000D9CFE5FFE1CFD9FF00C0E5FF01C0E5FFD9
:103A900002C0E5FF03C0E5FF04C0E5FF05C0E5FF88
:103AA00006C0E5FF07C0E5FF08C0E5FF09C0E5FF68
:103AB0000AC0E5FF0BC0E5FF0CC0E5FF0DC0E5FF48
:103AC0000EC0E5FF0FC0E5FF020EDBCF00F0030ED6
:103AD000DBCF01F0040EDBCF02F0050EDBCF03F0ED
:103AE000060EDBCF04F0070EDBCF05F0080EDBCFB0
:103AF00006F0200E076E086A06C009F00A6A0B6A13
:103B00000C6AE56AE56AE56A0950E56E0350E56E00
:103B10000250E56E0150E56E0050E56E5AEC20F063
:103B20000D6E080EE126300E0D263A0E0D5C05E3F3
:103B30000D500E6E270E0E240D6EFF0E0726082266
:103B4000E00E07240E6E000E08200F6E0EC0E9FF77
:103B50000FC0EAFF0DC0EFFF0C50E56E0B50E56E95
:103B60000A50E56E0950E56E0350E56E0250E56EB1
:103B70000150E56E0050E56EB8EC22F0006EF3CF18
:103B800001F0F4CF02F0E9CF03F0080EE126005077
:103B9000011002100310D8A4AFD707C000F008C06E
:103BA00001F004C002F005C003F000C004F001C041
:103BB00005F0004A012AE00E0426000E052204C08A
:103BC000E9FF05C0EAFFEFCF04F002C0E9FF03C040
:103BD000EAFF04C0EFFF024A032A000E015C02E183
:103BE000200E005CE2E302C0E9FF03C0EAFF000E22
:103BF000EF6AE4CF0FF0E4CF0EF0E4CF0DF0E4CFA6
:103C00000CF0E4CF0BF0E4CF0AF0E4CF09F0E4CFFE
:103C100008F0E4CF07F0E4CF06F0E4CF05F0E4CFFE
:103C200004F0E4CF03F0E4CF02F0E4CF01F0E4CFFE
:103C300000F0E4CFD9FF1200D9CFE5FFE1CFD9FFE3
:103C400000C0E5FF01C0E5FF02C0E5FF03C0E5FFDE
:103C500004C0E5FF05C0E5FF06C0E5FF07C0E5FFBE
:103C600008C0E5FF09C0E5FF0AC0E5FF0BC0E5FF9E
:103C70000CC0E5FF0DC0E5FF020EDBCF00F0030E28
:103C8000DBCF01F0040EDBCF02F0050EDBCF03F03B
:103C9000060EDBCF04F0070EDBCF05F0080EDBCFFE
:103CA00006F0090EDBCF07F0D88003AED890086A83
:103CB000083608500FE0031C0C6E021C0B6E011C32
:103CC0000A6E001C096E092A0DE10A2A0BE10B4A53
:103CD0000C2A08D000C009F001C00AF002C00BF0A5
:103CE00003C00CF0D88007AED890006A00360050B0
:103CF0000FE0071C0D6E061C036E051C026E041CF3
:103D0000016E012A0DE1022A0BE1034A0D2A08D0B7
:103D100004C001F005C002F006C003F007C00DF0BA
:103D20000D50E56E0350E56E0250E56E0150E56EF4
:103D30000C50E56E0B50E56E0A50E56E0950E56ECD
:103D4000B8EC22F0016EF3CF02F0F4CF03F0E9CF2C
:103D500004F0080EE1260050081A085016E0041C72
:103D6000076E031C066E021C056E011C006E002A05
:103D700004E1052A02E1064A072A07C0E9FF06C056
:103D8000F4FF05C0F3FF005007D004C0E9FF03C0F3
:103D9000F4FF02C0F3FF0150E4CF0DF0E4CF0CF0CC
:103DA000E4CF0BF0E4CF0AF0E4CF09F0E4CF08F061
:103DB000E4CF07F0E4CF06F0E4CF05F0E4CF04F061
:103DC000E4CF03F0E4CF02F0E4CF01F0E4CF00F061
:103DD000E4CFD9FF1200D9CFE5FFE1CFD9FF00C072
:103DE000E5FF01C0E5FF02C0E5FF03C0E5FF04C039
:103DF000E5FF05C0E5FF020EDBCF00F0030EDBCFD1
:103E000001F00150E56E0050E56EAFEC2DF0006E54
:103E1000E652E652016A0150800F800F02E16C0EFB
:103E2000005CD8B03ED000506C08026E000E015409
:103E3000036EE86A03BEFF0E046EE56E0450E56E85
:103E40000350E56E0250E56EE568E568FC0EE56E30
:103E5000DD0EE56E36EC1CF0026EF3CF03F0F4CF0E
:103E600004F0E9CF05F0080EE126E56AE56AE56AA7
:103E70006C0EE56E0550E56E0450E56E0350E56E80
:103E80000250E56E1CEC1EF0026EF3CF03F0080E3C
:103E9000E126240E0226D8A0030603C0F3FF025039
:103EA00046D00150800F800F02E1950E005CD8A033
:103EB0003CD06C0E0026D8A00106E86A01BEFF0EB9
:103EC000026EE56E0250E56E0150E56E0050E56E43
:103ED000E56AE56A030EE56E230EE56E36EC1CF02E
:103EE000006EF3CF01F0F4CF02F0E9CF03F0080E3B
:103EF000E126E56AE56AE56A6B0EE56E0350E56E5C
:103F00000250E56E0150E56E0050E56E1CEC1EF0AF
:103F1000006EF3CF01F0080EE126DC0E0026D8B0CB
:103F2000012A01C0F3FF005002D0F36AE86AE4CF2F
:103F300005F0E4CF04F0E4CF03F0E4CF02F0E4CFE7
:103F400001F0E4CF00F0E4CFD9FF120000C0E5FF9C
:103F500001C0E5FF02C0E5FF03C0E5FF04C0E5FFC7
:103F600005C0E5FF006AE80E0024016E026A040E37
:103F7000022201C0E9FF02C0EAFFEFCF01F00150C9
:103F8000FF0A01E185D001380F0B026E036A800E33
:103F900002260F0E032202C0E9FF03C0EAFFEFCFA3
:103FA00002F0070E0116010E036E000E046E0150A2
:103FB00006E0E86CD89003360436010FFCE3056A8E
:103FC000025003160550041603500410D880E8660A
:103FD000D890036A033603502DE10038E8441F0BE4
:103FE000016E026A840E0126060E022201C0E9FF5C
:103FF00002C0EAFFEFCF03F00050046E070E041674
:10400000010E056E04500DE006E6E86CD89005360A
:10401000010FFDE306D0D89005BED8800532010F10
:10402000FBE30350051201C0E9FF02C0EAFF05C02F
:10403000EFFF2ED00038E8441F0B016E026A840E99
:104040000126060E022201C0E9FF02C0EAFFEFCFFF
:1040500003F00050046E070E0416010E056E0450A6
:104060000DE006E6E86CD8900536010FFDE306D0BA
:10407000D89005BED8800532010FFBE3051C046E05
:104080000350041601C0E9FF02C0EAFF04C0EFFFBD
:10409000002A100E005CD8A066D7E4CF05F0E4CF6C
:1040A00004F0E4CF03F0E4CF02F0E4CF01F0E4CF7A
:1040B00000F01200D9CFE5FFE1CFD9FF00C0E5FF46
:1040C00001C0E5FF02C0E5FF03C0E5FF04C0E5FF56
:1040D00005C0E5FF06C0E5FF07C0E5FF08C0E5FF36
:1040E00009C0E5FF0AC0E5FF020EDBCF00F0030EBA
:1040F000DBCF01F0040EDBCF02F0050EDBCF03F0C7
:10410000060EDBCF04F0070EDBCF05F0080EDBCF89
:1041100006F0090EDBCF07F0086A04500510061000
:10412000071005E1E968F468F368E86847D0096AB0
:104130000750800BE8440A6E0A501BE10450042625
:104140000536063607360750035C08E10650025C68
:1041500005E10550015C02E10450005C06E2D890E4
:10416000073206320532043204D0092A09C008F0A9
:10417000DFD70750035C08E10650025C05E10550FB
:10418000015C02E10450005C08E30450005E05504D
:10419000015A0650025A0750035AD8900732063285
:1041A0000532043208C009F008060950E2E103C0F4
:1041B000E9FF02C0F4FF01C0F3FF0050E4CF0AF0B2
:1041C000E4CF09F0E4CF08F0E4CF07F0E4CF06F045
:1041D000E4CF05F0E4CF04F0E4CF03F0E4CF02F045
:1041E000E4CF01F0E4CF00F0E4CFD9FF120000C02B
:1041F000E5FF01C0E5FF02C0E5FF03C0E5FF04C025
:10420000E5FF06018F5106018E1901E16AD08FC6C4
:1042100000F00050016E0128006E009E600E002428
:10422000016E026A000E022201C0E9FF02C0EAFF2D
:10423000EFCF99F61F0E060199178FC698F6995180
:10424000060198279851016E020E0124986F989FDD
:1042500093EC31F0016E015003E1016A012A01D0B3
:10426000016A93EC31F00601996F99C602F0800E55
:10427000021699C603F01F0E031603C004F003C014
:1042800099F6045003E18EC68FF63ED001501EE031
:10429000025025E093EC31F0006E06019951016E59
:1042A0000104996F0050420A1AE000504E0A03E1DF
:1042B00086EC2EF014D00050460A03E1ADEC34F049
:1042C0000ED00050490A0BE1FF0009D08FC69AF6C4
:1042D000025003E0D6EC30F002D07EEC27F098C616
:1042E0008FF604013B5104013C1906E00601905190
:1042F00003E18FEC21F008D092BA06D0060190516C
:1043000003E172B279EC34F0E4CF04F0E4CF03F0CF
:10431000E4CF02F0E4CF01F0E4CF00F0120000C0DF
:10432000E5FF01C0E5FF02C0E5FF03C0E5FF04C0F3
:10433000E5FF72A27ED075EC32F0006E005005E110
:1043400004013C6B04013B6B74D03CC401F0005091
:10435000012675EC32F0026E0050036E0304006E0D
:104360000250230A1FE1010E005CD8A060D075EC5A
:1043700032F0026E690A03E138EC31F058D0025095
:10438000720A03E179EC34F052D00250730A01E072
:104390004ED0928A7186A38AA398745074507198F3
:1043A000718845D00250430A05E00250420A01E0FC
:1043B0003ED006D000C003F0046A038E0350006EA6
:1043C00000C092F600500401006F010E0601936FC9
:1043D00004013C51011814E075EC32F0026E060144
:1043E0009227000E06019325006E036A040E032235
:1043F00000C0E9FF03C0EAFF02C0EFFF932BE8D73C
:10440000000E06019325006E026A040E02220601C8
:10441000921D036E032A00C0E9FF02C0EAFF03C039
:10442000EFFF0601932B93C690F606018A6B01C03D
:104430003CF4E4CF04F0E4CF03F0E4CF02F0E4CFA7
:1044400001F0E4CF00F01200D9CFE5FFE1CFD9FFB2
:1044500000C0E5FF01C0E5FF02C0E5FF03C0E5FFC6
:1044600004C0E5FF05C0E5FF06C0E5FF07C0E5FFA6
:10447000020EDBCF00F0030EDBCF01F0040EDBCF2A
:1044800002F000500B0F036E000E0120046E000EB0
:104490000220E56AF46AF66AF76A03C0E9FF04C01D
:1044A000F3FF3AEC34F00050070F036E000E0120CA
:1044B000046E000E0220056E0050030F066E000E03
:1044C0000120076E000E0220E56AF46AF66AF76AB8
:1044D00006C0E9FF07C0F3FF3AEC34F0E56AF46A7E
:1044E000F66AF76A03C0E9FF04C0F3FF05503AEC2F
:1044F00034F00050010F036E000E0120046E000E18
:104500000220056E0050020F066E000E0120076E9D
:10451000000E0220E56A06C0E9FF07C0F3FFB8EC11
:1045200034F0E56A03C0E9FF04C0F3FF0550B8ECBE
:1045300034F0E56A00C0E9FF01C0F3FF0250B8ECB7
:1045400034F0E4CF07F0E4CF06F0E4CF05F0E4CF99
:1045500004F0E4CF03F0E4CF02F0E4CF01F0E4CFC5
:1045600000F0E4CFD9FF120025642025640A000082
:10457000D9CFE5FFE1CFD9FF00C0E5FF01C0E5FFDE
:1045800002C0E5FF03C0E5FF04C0E5FF05C0E5FF8D
:1045900006C0E5FF07C0E5FF08C0E5FF09C0E5FF6D
:1045A0000AC0E5FF0BC0E5FF0CC0E5FF0DC0E5FF4D
:1045B000020EDBCF00F0030EDBCF01F0040EDBCFE9
:1045C00002F0050EDBCF03F0060EDBCF04F0070E82
:1045D000DBCF05F0080EDBCF06F0090EDBCF07F0CE
:1045E000086A096A0A6A0B6A200E0C6E0350800B77
:1045F000E8440D6E0050002601360236033608509E
:10460000082609360A360B360D50D8A40880075004
:104610000B5C08E106500A5C05E10550095C02E10B
:104620000450085C09E30450085E0550095A06501E
:104630000A5A07500B5A00800C040D6E0DC00CF086
:104640000D50D4E103C0E9FF02C0F4FF01C0F3FF45
:104650000050E4CF0DF0E4CF0CF0E4CF0BF0E4CF4A
:104660000AF0E4CF09F0E4CF08F0E4CF07F0E4CF9C
:1046700006F0E4CF05F0E4CF04F0E4CF03F0E4CF9C
:1046800002F0E4CF01F0E4CF00F0E4CFD9FF120054
:1046900000C0E5FF01C0E5FF03C0E5FF04C0E5FF82
:1046A00005C0E5FF06C0E5FF07C0E5FF08C0E5FF60
:1046B00009C0E5FF0AC0E5FF0BC0E5FF78C600F0C2
:1046C00079C601F00601783F01D0792B0050E56EE4
:1046D0006BEC34F0E652076E046A056A066A78C627
:1046E00000F079C601F00601783F01D0792B005027
:1046F000E56E6BEC34F0E6520B6A0A6E086A0850FD
:10470000041205120A5006120B50071278C600F068
:1047100079C601F00601783F01D0792B0050E56E93
:104720006BEC34F0E652036E006A03C001F0E86AF5
:1047300003BEFF0E086E096E0050041201500512F0
:10474000085006120950071278C600F079C601F029
:104750000601783F01D0792B0050E56E6BEC34F008
:10476000E652016A0412015005120612071207C030
:10477000E9FF06C0F4FF05C0F3FF0450E4CF0BF0DF
:10478000E4CF0AF0E4CF09F0E4CF08F0E4CF07F07B
:10479000E4CF06F0E4CF05F0E4CF04F0E4CF03F07B
:1047A000E4CF01F0E4CF00F01200D9CFE5FFE1CF74
:1047B000D9FF00C0E5FF01C0E5FF02C0E5FF03C06F
:1047C000E5FF04C0E5FF05C0E5FF06C0E5FF07C043
:1047D000E5FF020EDBCF00F0030EDBCF01F0040E8D
:1047E000DBCF02F0050EDBCF03F003C004F0056A57
:1047F0000350D8B454D000C0E9FF01C0F3FF025009
:104800004BEC34F0066E430A08E1010E056E03C05E
:1048100006F0076A068E0650036E0406002A02E3BD
:10482000014A022AA39A7198929AA398A4A8FED743
:104830007280736A0000A4A8FED7729003C073FF51
:104840000000A4A8FED7055004E0420E736E0326B4
:1048500004D0620E736E620E0326045015E0000051
:10486000A4A8FED700C0E9FF01C0F3FF02504BEC43
:1048700034F0056E05C073FF055003260406002AB8
:1048800002E3014A022AE9D70000A4A8FED7031CCC
:10489000736E732A0000A4A8FED779EC34F0E4CF3D
:1048A00007F0E4CF06F0E4CF05F0E4CF04F0E4CF66
:1048B00003F0E4CF02F0E4CF01F0E4CF00F0E4CF66
:1048C000D9FF1200D9CFE5FFE1CFD9FF00C0E5FF46
:1048D00001C0E5FF02C0E5FF03C0E5FF04C0E5FF3E
:1048E00005C0E5FF06C0E5FF07C0E5FF08C0E5FF1E
:1048F0000BC0E5FF0CC0E5FF0DC0E5FF020EDBCFEE
:1049000000F0030EDBCF01F0040EDBCF02F0050E4A
:10491000DBCF03F0060EDBCF04F003C0E5FF04C0DD
:10492000F4FF00C0E9FF01C0F3FF025095EC34F042
:104930000050020F056E000E0120066E000E0220D0
:10494000076EE86A04BEFF0E086E04500C6E0C265B
:1049500008340D6ED8900C360D360344E844FC0B39
:104960000B6E0350E844E844030B0C12E56A0BC0DD
:10497000F4FF0CC0F6FF0DC0F7FF05C0E9FF06C04D
:10498000F3FF07503AEC34F0080E0026000E012227
:104990000222E56AF46AF66AF76A00C0E9FF01C01C
:1049A000F3FF02503AEC34F0E4CF0DF0E4CF0CF01A
:1049B000E4CF0BF0E4CF08F0E4CF07F0E4CF06F04B
:1049C000E4CF05F0E4CF04F0E4CF03F0E4CF02F04D
:1049D000E4CF01F0E4CF00F0E4CFD9FF1200D9CF4B
:1049E000E5FFE1CFD9FF00C0E5FF01C0E5FF02C050
:1049F000E5FF03C0E5FF04C0E5FF05C0E5FF06C015
:104A0000E5FF07C0E5FF020EDBCF00F0030EDBCFB2
:104A100001F0040EDBCF02F0050EDBCF03F002C085
:104A200006F00650046E800A33E100C0E9FF01C0C1
:104A3000F3FF0250ECEC32F0056EF3CF06F0F4CF4A
:104A400007F003C0E5FF05C0E9FF06C0F3FF07500C
:104A5000B8EC34F000C0E9FF01C0F3FF0250ECEC09
:104A600032F0056EF3CF06F0F4CF07F0052A02E32B
:104A7000064A072A05C0E5FF06C0F4FF07C0F6FF97
:104A800000C0E9FF01C0F3FF02505CEC34F020D01D
:104A900004C000F000AA1CD0007A0050046E04E1AB
:104AA0000350FFEC34F014D00450010A04E1035029
:104AB00002EC00F00DD004500F0A04E1035007ECA3
:104AC00031F006D004500E0A03E1035012EC35F029
:104AD000E4CF07F0E4CF06F0E4CF05F0E4CF04F034
:104AE000E4CF03F0E4CF02F0E4CF01F0E4CF00F034
:104AF000E4CFD9FF120000C0E5FF01C0E5FF02C00E
:104B0000E5FF9EAA77D0ABA208D00401426BAE505D
:104B10000000AE50AB98AB886DD0ABA405D0010EB1
:104B20000401426FAE5066D0ABB004D00401426BBA
:104B3000AE5060D0AECF00F004014251010A17E13F
:104B400000500EE1020E0401426F0401436B446BFE
:104B50009EA802D0010EAD6E010E0401456F06D075
:104B60000401426B9EA802D0FF0EAD6E43D004013B
:104B70004251020A01E03ED00401433F01D0442BE0
:104B8000040144510601875D04E10401435106011B
:104B9000865D04E243C486F644C487F6010E040130
:104BA000445D02E1FF0E435D25E2010E0401445D18
:104BB00002E1000E435D11E304014351016EFF0E5B
:104BC0004425026E000E0126050E022201C0E9FFF7
:104BD00002C0EAFF00C0EFFF0DD0000E0401432524
:104BE000016E020E4421026E01C0E9FF02C0EAFF1D
:104BF00000C0EFFFE4CF02F0E4CF01F0E4CF00F01B
:104C00001200D9CFE5FFE1CFD9FF00C0E5FF01C019
:104C1000E5FF02C0E5FF03C0E5FF04C0E5FF05C0F6
:104C2000E5FF06C0E5FF07C0E5FF020EDBCF00F0A1
:104C3000030EDBCF01F0040EDBCF02F0050EDBCF5D
:104C400003F03CC43DF404013B5104013D5F3D5180
:104C5000046E04043D6F03C004F0056A030E0426CD
:104C6000D8B0052A3DC406F0076A0750800FF36EDE
:104C70000550800FF35C02E10450065C02E2E86834
:104C800030D0020E035C02E2E86A2BD00350046EBF
:104C90000404036EE56E84EC2FF0E652046A0350C0
:104CA000045C14E204500024056EE86A0120066EDC
:104CB000E86A022005C0E9FF06C0F3FF4BEC34F0C0
:104CC000042AE56E84EC2FF0E652E9D73CC43DF4AB
:104CD00004013B5104013D5F3D51006E00043D6FF6
:104CE000E86AE4CF07F0E4CF06F0E4CF05F0E4CFC4
:104CF00004F0E4CF03F0E4CF02F0E4CF01F0E4CF1E
:104D000000F0E4CFD9FF1200D9CFE5FFE1CFD9FF02
:104D100000C0E5FF01C0E5FF02C0E5FF03C0E5FFFD
:104D200004C0E5FF05C0E5FF06C0E5FF07C0E5FFDD
:104D300008C0E5FF09C0E5FF0AC0E5FF0BC0E5FFBD
:104D40000CC0E5FF020EDBCF00F0030EDBCF01F05D
:104D5000040EDBCF02F0050EDBCF03F0060EDBCF37
:104D600004F0070EDBCF05F0080EDBCF06F0090ECE
:104D7000DBCF07F002500A6E0150096E0050086E3A
:104D800006C00BF007C00CF0FF0E062607220B50E2
:104D90000C101AE003C0E9FF04C0F3FF05504BEC10
:104DA00034F00B6E032A02E3044A052A0BC0E5FF28
:104DB00008C0E9FF09C0F3FF0A50B8EC34F0082A34
:104DC000DFE3094A0A2ADCD702C0F4FF01C0F3FF7F
:104DD0000050E4CF0CF0E4CF0BF0E4CF0AF0E4CFC6
:104DE00009F0E4CF08F0E4CF07F0E4CF06F0E4CF19
:104DF00005F0E4CF04F0E4CF03F0E4CF02F0E4CF19
:104E000001F0E4CF00F0E4CFD9FF120000C0E5FFCD
:104E100001C0E5FF02C0E5FF03C0E5FF05C0E5FFF7
:104E2000006A016A0150800F7F0F02E1000E005CF2
:104E30000FE30050026EFF0E0124036E000E0226E7
:104E4000050E032202C0E9FF03C0EAFFEF6A0BD0A0
:104E5000000E0024026E020E0120036E02C0E9FF64
:104E600003C0EAFFEF6A004A012A0150800F7F0F5A
:104E700002E1FF0E005CD6E3948E820E006E0F0EF0
:104E8000016E0F0E036E380E0026035001220F0E26
:104E9000036E800E005E0350015A820E026E0F0EEA
:104EA000036E0F0E056E380E0226055003220F0EFC
:104EB000056E800E025E0550035A02C0E9FF03C072
:104EC000EAFFEFCF02F0029E00C0E9FF01C0EAFF57
:104ED00002C0EFFFB886FBEC34F0D6EC34F0AC84C3
:104EE000AB8C9F9AAB8EE4CF05F0E4CF03F0E4CF18
:104EF00002F0E4CF01F0E4CF00F0120000C0E5FFC3
:104F000001C0E5FF03C0E5FF93EC31F0006E780AC5
:104F100011E00050790A19E000507A0A21E00050AF
:104F20007B0A2CE000507C0A37E00050FF0A01E1C8
:104F30004CD04DD0800EE56E040EE56E930EE56EFE
:104F4000B1EC14F0030EE12642D0800EE56E060EA1
:104F5000E56E000EE56EB1EC14F0030EE12637D0DD
:104F600093EC31F0006A016E93EC31F0036A002497
:104F700004017E6F035001207F6F29D093EC31F044
:104F8000006A016E93EC31F0036A00240601766F2B
:104F900003500120776F1BD093EC31F0E56E0401D4
:104FA0007F51E56E7E51E56E13EC2DF0030EE12688
:104FB00093EC31F0E56E06017751E56E7651E56EC2
:104FC00013EC2DF0030EE12602D0C3EC34F0E4CF55
:104FD00003F0E4CF01F0E4CF00F01200D9CFE5FFF9
:104FE000E1CFD9FF00C0E5FF01C0E5FF02C0E5FF4A
:104FF00003C0E5FF04C0E5FF05C0E5FF06C0E5FF0F
:10500000020EDBCF00F0030EDBCF01F0040EDBCF8E
:1050100002F0050EDBCF03F0D88001AED890046A11
:105020000436045007E0011C066E001C056E054A9C
:10503000062A04D000C005F001C006F0D88003AEF7
:10504000D89007E3031C016E021C006E004A012A7F
:1050500004D002C000F003C001F00150E56E005022
:10506000E56E0650E56E0550E56E20EC2BF0006E07
:10507000F3CF01F0040EE12604500AE0011C036E98
:10508000001C026E024A032A03C0F3FF025003D041
:1050900001C0F3FF0050E4CF06F0E4CF05F0E4CF09
:1050A00004F0E4CF03F0E4CF02F0E4CF01F0E4CF6A
:1050B00000F0E4CFD9FF1200D9CFE5FFE1CFD9FF4F
:1050C00000C0E5FF01C0E5FF02C0E5FF03C0E5FF4A
:1050D00004C0E5FF05C0E5FF020EDBCF00F0030EC4
:1050E000DBCF01F0040EDBCF02F0050EDBCF03F0C7
:1050F00078C604F079C605F00601783F01D0792B17
:105100000350E56E0450E56E31EC32F0E652E652A3
:1051100078C604F079C605F00601783F01D0792BF6
:105120000250056EE56E0450E56E31EC32F0E65249
:10513000E65278C604F079C605F00601783F01D042
:10514000792B0150E56E0450E56E31EC32F0E652F9
:10515000E65278C604F079C605F00601783F01D022
:10516000792B0050E56E0450E56E31EC32F0E652DA
:10517000E652E4CF05F0E4CF04F0E4CF03F0E4CF4F
:1051800002F0E4CF01F0E4CF00F0E4CFD9FF120049
:10519000D9CFE5FFE1CFD9FF00C0E5FF01C0E5FFB2
:1051A00002C0E5FF03C0E5FF04C0E5FF05C0E5FF61
:1051B00008C0E5FF09C0E5FF0AC0E5FF020EDBCF2E
:1051C00000F0030EDBCF01F0040EDBCF02F0050E82
:1051D000DBCF03F0060EDBCF04F003C0E5FF04C015
:1051E000F4FF00C0E9FF01C0F3FF025095EC34F07A
:1051F000020E0026000E0122022204BEFF0E056EE2
:105200000450096E092605340A6ED89009360A360C
:105210000344E844FC0B086E0350E844E844030BE5
:105220000912E56A08C0F4FF09C0F6FF0AC0F7FFDB
:1052300000C0E9FF01C0F3FF02503AEC34F0E4CFC4
:105240000AF0E4CF09F0E4CF08F0E4CF05F0E4CFB2
:1052500004F0E4CF03F0E4CF02F0E4CF01F0E4CFB8
:1052600000F0E4CFD9FF1200D9CFE5FFE1CFD9FF9D
:1052700000C0E5FF01C0E5FF02C0E5FF03C0E5FF98
:1052800004C0E5FF05C0E5FF06C0E5FF020EDBCF69
:1052900000F0030EDBCF01F0040EDBCF02F00601BD
:1052A000895119E148EC23F0036EF3CF04F0F4CFF9
:1052B00005F0E9CF06F003C0E5FF04C0F4FF05C028
:1052C000F6FF06C0F7FF00C0E9FF01C0F3FF025080
:1052D0003AEC34F01ED006018951010A1AE100C0EF
:1052E000E9FF01C0F3FF025055EC32F0006EF3CF3E
:1052F00001F0F4CF02F0E9CF03F00350E56E025065
:10530000E56E0150E56E0050E56E5CEC28F0040E91
:10531000E126E4CF06F0E4CF05F0E4CF04F0E4CFDB
:1053200003F0E4CF02F0E4CF01F0E4CF00F0E4CFEB
:10533000D9FF1200D9CFE5FFE1CFD9FF00C0E5FFCB
:1053400001C0E5FF02C0E5FF03C0E5FF04C0E5FFC3
:10535000020EDBCF00F0030EDBCF01F0040EDBCF3B
:1053600002F00050070F036E000E0120046E000EC5
:105370000220E56E0450E56E0350E56E08EC2FF058
:10538000030EE1260050230F036E000E0120046E71
:10539000000E0220E56E0450E56E0350E56E7DECD4
:1053A0002BF0030EE1260050330F036E000E012098
:1053B000046E000E0220E56E0450E56E0350E56EAB
:1053C00063EC2AF0030EE126440E0026000E0122B3
:1053D00002220250E56E0150E56E0050E56E63EC6E
:1053E0002AF0030EE126E4CF04F0E4CF03F0E4CF8B
:1053F00002F0E4CF01F0E4CF00F0E4CFD9FF1200D7
:10540000D9CFE5FFE1CFD9FF00C0E5FF01C0E5FF3F
:1054100002C0E5FF03C0E5FF04C0E5FF05C0E5FFEE
:1054200006C0E5FF020EDBCF00F0030EDBCF01F07C
:10543000040EDBCF02F0050EDBCF03F0060EDBCF50
:1054400004F0070EDBCF05F0080EDBCF06F0D880A6
:1054500003AED89015E306500A0A12E104C0E9FF32
:1054600005C0EAFF2D0EEF6E044A052A031E021E38
:10547000011E006C05E1012A03E1022AD8B4032AC7
:105480000650E56E0550E56E0450E56E0350E56E7E
:105490000250E56E0150E56E0050E56E40EC1DF0E7
:1054A000070EE126E4CF06F0E4CF05F0E4CF04F0E8
:1054B000E4CF03F0E4CF02F0E4CF01F0E4CF00F05A
:1054C000E4CFD9FF1200D9CFE5FFE1CFD9FF00C06B
:1054D000E5FF01C0E5FF02C0E5FF03C0E5FF04C032
:1054E000E5FF020EDBCF00F0030EDBCF01F0040E70
:1054F000DBCF02F00250E56E0150E56E0050E56E24
:1055000008EC2FF0030EE1260050010F036E000E91
:105510000120046E000E0220E56E0450E56E03507B
:10552000E56E08EC2FF0030EE1260050020F036E2B
:10553000000E0120046E000E0220E56E0450E56EA0
:105540000350E56E08EC2FF0030EE1260F0E002647
:10555000000E012202220250E56E0150E56E00505D
:10556000E56E77EC2CF0030EE126E4CF04F0E4CFF7
:1055700003F0E4CF02F0E4CF01F0E4CF00F0E4CF99
:10558000D9FF1200D9CFE5FFE1CFD9FF00C0E5FF79
:1055900001C0E5FF02C0E5FF03C0E5FF04C0E5FF71
:1055A00005C0E5FF020EDBCF00F0030EDBCF01F0FC
:1055B000040EDBCF02F000500B0F036E000E012033
:1055C000046E000E0220E56AF46AF66AF76A03C008
:1055D000E9FF04C0F3FF3AEC34F00050070F036E0C
:1055E000000E0120046E000E0220056E030E002640
:1055F000000E01220222E56AF46AF66AF76A00C028
:10560000E9FF01C0F3FF02503AEC34F0E56AF46AB6
:10561000F66AF76A03C0E9FF04C0F3FF05503AECED
:1056200034F0E4CF05F0E4CF04F0E4CF03F0E4CFAE
:1056300002F0E4CF01F0E4CF00F0E4CFD9FF120094
:10564000D9CFE5FFE1CFD9FF00C0E5FF01C0E5FFFD
:1056500002C0E5FF03C0E5FF04C0E5FF05C0E5FFAC
:1056600006C0E5FF020EDBCF00F0030EDBCF01F03A
:10567000040EDBCF02F0050EDBCF03F0046A056AEF
:105680000350800BE844066E065011E102500226DA
:1056900003360350015C02E10250005C04E2D89042
:1056A0000332023204D0052A05C004F0E9D70350C2
:1056B000015C02E10250005C04E30250005E035012
:1056C000015AD8900332023204C005F00406055096
:1056D000EEE101C0F3FF0050E4CF06F0E4CF05F0A7
:1056E000E4CF04F0E4CF03F0E4CF02F0E4CF01F024
:1056F000E4CF00F0E4CFD9FF1200D9CFE5FFE1CF2E
:10570000D9FF00C0E5FF01C0E5FF02C0E5FF03C00F
:10571000E5FF04C0E5FF020EDBCF00F0030EDBCF98
:1057200001F0040EDBCF02F00050060F036E000EF6
:105730000120046E000E0220E56E0450E56E035059
:10574000E56E77EC2CF0030EE12600500C0F036E93
:10575000000E0120046E000E0220E56E0450E56E7E
:105760000350E56E77EC2CF0030EE1260E0E0026BA
:10577000000E012202220250E56E0150E56E00503B
:10578000E56E77EC2CF0030EE126E4CF04F0E4CFD5
:1057900003F0E4CF02F0E4CF01F0E4CF00F0E4CF77
:1057A000D9FF1200D9CFE5FFE1CFD9FF00C0E5FF57
:1057B00001C0E5FF02C0E5FF03C0E5FF04C0E5FF4F
:1057C000020EDBCF00F0030EDBCF01F0040EDBCFC7
:1057D00002F0E56AF46A00C0E9FF01C0F3FF02507D
:1057E00095EC34F00050020F036E000E0120046EA1
:1057F000000E0220E56AF46AF66AF76A03C0E9FF60
:1058000004C0F3FF3AEC34F0080E0026000E01222B
:105810000222E56AF46AF66AF76A00C0E9FF01C08D
:10582000F3FF02503AEC34F0E4CF04F0E4CF03F09D
:10583000E4CF02F0E4CF01F0E4CF00F0E4CFD9FFF1
:10584000120025642025640A000000C0E5FF01C0A5
:10585000E5FF02C0E5FF03C0E5FF8FC600F0016A67
:105860009AC602F0036A0250005E0350015AE56ACC
:10587000800EE56E0150E56E0050E56EEEEC27F00F
:10588000006E040EE12600069AC601F0430E07ECF6
:1058900031F0200E07EC31F0005020E0600E0124C2
:1058A000026E036A000E032202C0E9FF03C0EAFF92
:1058B000EFCF02F0E56A0250E56E000EE56E690E6C
:1058C000E56E0A0EE56EC8EC2EF0050EE126012A03
:1058D0000150800A01E1016A0006DED7E4CF03F03F
:1058E000E4CF02F0E4CF01F0E4CF00F01200D9CF12
:1058F000E5FFE1CFD9FF00C0E5FF01C0E5FF02C031
:10590000E5FF03C0E5FF04C0E5FF020EDBCF00F0BA
:10591000030EDBCF01F0040EDBCF02F0060189514C
:1059200011E1A2EC30F0036EF3CF04F003C0E5FF09
:1059300004C0F4FF00C0E9FF01C0F3FF025095EC82
:1059400034F016D006018951010A12E100C0E9FFC6
:1059500001C0F3FF0250ABEC33F0006EF3CF01F067
:105960000150E56E0050E56E47EC2FF0E652E6522E
:10597000E4CF04F0E4CF03F0E4CF02F0E4CF01F091
:10598000E4CF00F0E4CFD9FF1200D9CFE5FFE1CF9B
:10599000D9FF00C0E5FF01C0E5FF02C0E5FF03C07D
:1059A000E5FF04C0E5FF020EDBCF00F00038E8445D
:1059B0001F0B016E026A840E0126060E022201C030
:1059C000E9FF02C0EAFFEFCF01F0070E0016010E5B
:1059D000026E000E036E005006E0E86CD8900236AE
:1059E0000336010FFCE3046A01500216045003164B
:1059F00002500310D880E866D890026A023602503E
:105A0000D880E866D890026A02360250E4CF04F0EB
:105A1000E4CF03F0E4CF02F0E4CF01F0E4CF00F0F4
:105A2000E4CFD9FF1200D9CFE5FFE1CFD9FF00C005
:105A3000E5FF01C0E5FF02C0E5FF03C0E5FF04C0CC
:105A4000E5FF020EDBCF00F0030EDBCF01F0040E0A
:105A5000DBCF02F00050011027E0010E015C02E1F3
:105A6000FF0E005C01E320D0010E015C02E1000E9C
:105A7000005C10E30050036EFF0E0124046E000E64
:105A80000326050E042203C0E9FF04C0EAFF02C09A
:105A9000EFFF0AD0000E0026020E012200C0E9FF2F
:105AA00001C0EAFF02C0EFFFE4CF04F0E4CF03F04F
:105AB000E4CF02F0E4CF01F0E4CF00F0E4CFD9FF6F
:105AC0001200DE0EF66E690EF76E000EF86E09001B
:105AD000F550056E0900F550066E04E1056702D029
